{
  "_format": "hh-sol-artifact-1",
  "contractName": "PredictionMarket",
  "sourceName": "contracts/PredictionMarket.sol",
  "abi": [
    {
      "inputs": [
        {
          "internalType": "uint256",
          "name": "_index",
          "type": "uint256"
        },
        {
          "internalType": "bool",
          "name": "_outcome",
          "type": "bool"
        }
      ],
      "name": "buyShares",
      "outputs": [],
      "stateMutability": "payable",
      "type": "function"
    },
    {
      "inputs": [
        {
          "internalType": "string",
          "name": "_description",
          "type": "string"
        },
        {
          "internalType": "uint256",
          "name": "_endTimestamp",
          "type": "uint256"
        },
        {
          "internalType": "uint256",
          "name": "_price",
          "type": "uint256"
        }
      ],
      "name": "createContract",
      "outputs": [],
      "stateMutability": "nonpayable",
      "type": "function"
    },
    {
      "inputs": [
        {
          "internalType": "uint256",
          "name": "_index",
          "type": "uint256"
        }
      ],
      "name": "getContract",
      "outputs": [
        {
          "internalType": "address",
          "name": "",
          "type": "address"
        },
        {
          "internalType": "string",
          "name": "",
          "type": "string"
        },
        {
          "internalType": "uint256",
          "name": "",
          "type": "uint256"
        },
        {
          "internalType": "uint256",
          "name": "",
          "type": "uint256"
        },
        {
          "internalType": "uint256",
          "name": "",
          "type": "uint256"
        },
        {
          "internalType": "uint256",
          "name": "",
          "type": "uint256"
        },
        {
          "internalType": "bool",
          "name": "",
          "type": "bool"
        },
        {
          "internalType": "bool",
          "name": "",
          "type": "bool"
        }
      ],
      "stateMutability": "view",
      "type": "function"
    },
    {
      "inputs": [
        {
          "internalType": "uint256",
          "name": "_index",
          "type": "uint256"
        },
        {
          "internalType": "bool",
          "name": "_outcome",
          "type": "bool"
        }
      ],
      "name": "resolveContract",
      "outputs": [],
      "stateMutability": "nonpayable",
      "type": "function"
    }
  ],
  "bytecode": "0x60806040526000805573874069fa1eb16d44d622f2e0ca25eea172369bc1600160006101000a81548173ffffffffffffffffffffffffffffffffffffffff021916908373ffffffffffffffffffffffffffffffffffffffff16021790555034801561006957600080fd5b50610c1f806100796000396000f3fe60806040526004361061003f5760003560e01c80630a5c8d5e146100445780632d25cb4d146101205780636ebc8c8614610167578063eb7177ee14610266575b600080fd5b34801561005057600080fd5b5061011e6004803603606081101561006757600080fd5b810190808035906020019064010000000081111561008457600080fd5b82018360208201111561009657600080fd5b803590602001918460018302840111640100000000831117156100b857600080fd5b91908080601f016020809104026020016040519081016040528093929190818152602001838380828437600081840152601f19601f82011690508083019250505050505050919291929080359060200190929190803590602001909291905050506102a0565b005b34801561012c57600080fd5b506101656004803603604081101561014357600080fd5b8101908080359060200190929190803515159060200190929190505050610377565b005b34801561017357600080fd5b506101a06004803603602081101561018a57600080fd5b8101908080359060200190929190505050610699565b604051808973ffffffffffffffffffffffffffffffffffffffff1681526020018060200188815260200187815260200186815260200185815260200184151581526020018315158152602001828103825289818151815260200191508051906020019080838360005b83811015610224578082015181840152602081019050610209565b50505050905090810190601f1680156102515780820380516001836020036101000a031916815260200191505b50995050505050505050505060405180910390f35b61029e6004803603604081101561027c57600080fd5b81019080803590602001909291908035151590602001909291905050506107d6565b005b600060026000805481526020019081526020016000209050338160000160006101000a81548173ffffffffffffffffffffffffffffffffffffffff021916908373ffffffffffffffffffffffffffffffffffffffff16021790555083816001019080519060200190610313929190610b08565b5082816002018190555081816005018190555060008160060160006101000a81548160ff02191690831515021790555060008160060160016101000a81548160ff021916908315150217905550600080815480929190600101919050555050505050565b60026000838152602001908152602001600020600201544211610402576040517f08c379a000000000000000000000000000000000000000000000000000000000815260040180806020018281038252601d8152602001807f436f6e747261637420686173206e6f742079657420657870697265642e00000081525060200191505060405180910390fd5b6002600083815260200190815260200160002060060160009054906101000a900460ff161561047c576040517f08c379a0000000000000000000000000000000000000000000000000000000008152600401808060200182810382526023815260200180610bc76023913960400191505060405180910390fd5b60016002600084815260200190815260200160002060060160006101000a81548160ff021916908315150217905550806002600084815260200190815260200160002060060160016101000a81548160ff021916908315150217905550600061051a6002600085815260200190815260200160002060040154600260008681526020019081526020016000206003015461097190919063ffffffff16565b9050600081111561069457600061053a82476109f990919063ffffffff16565b905082156105ec576002600085815260200190815260200160002060000160009054906101000a900473ffffffffffffffffffffffffffffffffffffffff1673ffffffffffffffffffffffffffffffffffffffff166108fc6105bb836002600089815260200190815260200160002060030154610a8290919063ffffffff16565b9081150290604051600060405180830381858888f193505050501580156105e6573d6000803e3d6000fd5b50610692565b6002600085815260200190815260200160002060000160009054906101000a900473ffffffffffffffffffffffffffffffffffffffff1673ffffffffffffffffffffffffffffffffffffffff166108fc610665836002600089815260200190815260200160002060040154610a8290919063ffffffff16565b9081150290604051600060405180830381858888f19350505050158015610690573d6000803e3d6000fd5b505b505b505050565b600060606000806000806000806000600260008b815260200190815260200160002090508060000160009054906101000a900473ffffffffffffffffffffffffffffffffffffffff168160010182600201548360030154846004015485600501548660060160009054906101000a900460ff168760060160019054906101000a900460ff16868054600181600116156101000203166002900480601f0160208091040260200160405190810160405280929190818152602001828054600181600116156101000203166002900480156107b35780601f10610788576101008083540402835291602001916107b3565b820191906000526020600020905b81548152906001019060200180831161079657829003601f168201915b505050505096509850985098509850985098509850985050919395975091939597565b6002600083815260200190815260200160002060060160009054906101000a900460ff1615610850576040517f08c379a0000000000000000000000000000000000000000000000000000000008152600401808060200182810382526023815260200180610bc76023913960400191505060405180910390fd5b600260008381526020019081526020016000206005015434146108db576040517f08c379a000000000000000000000000000000000000000000000000000000000815260040180806020018281038252601e8152602001807f496e636f727265637420616d6f756e74206f6620635553442073656e742e000081525060200191505060405180910390fd5b80156109295761090a34600260008581526020019081526020016000206003015461097190919063ffffffff16565b600260008481526020019081526020016000206003018190555061096d565b61095234600260008581526020019081526020016000206004015461097190919063ffffffff16565b60026000848152602001908152602001600020600401819055505b5050565b6000808284019050838110156109ef576040517f08c379a000000000000000000000000000000000000000000000000000000000815260040180806020018281038252601b8152602001807f536166654d6174683a206164646974696f6e206f766572666c6f77000000000081525060200191505060405180910390fd5b8091505092915050565b6000808211610a70576040517f08c379a000000000000000000000000000000000000000000000000000000000815260040180806020018281038252601a8152602001807f536166654d6174683a206469766973696f6e206279207a65726f00000000000081525060200191505060405180910390fd5b818381610a7957fe5b04905092915050565b600080831415610a955760009050610b02565b6000828402905082848281610aa657fe5b0414610afd576040517f08c379a0000000000000000000000000000000000000000000000000000000008152600401808060200182810382526021815260200180610ba66021913960400191505060405180910390fd5b809150505b92915050565b828054600181600116156101000203166002900490600052602060002090601f016020900481019282601f10610b4957805160ff1916838001178555610b77565b82800160010185558215610b77579182015b82811115610b76578251825591602001919060010190610b5b565b5b509050610b849190610b88565b5090565b5b80821115610ba1576000816000905550600101610b89565b509056fe536166654d6174683a206d756c7469706c69636174696f6e206f766572666c6f77436f6e74726163742068617320616c7265616479206265656e207265736f6c7665642ea264697066735822122015717c1f8046fe3a09a55eb6926178cfc46176e81cf26fddf2b2dfca1b3a23ab64736f6c63430007000033",
  "linkReferences": {},
  "deployedLinkReferences": {}
}